:1000000000800020BD010000914200005542000028
:100010005542000055420000554200005542000084
:100020005542000055420000554200009142000038
:1000300091420000554200009142000045420000FC
:100040009142000091420000914200009142000064
:100050009142000091420000914200009142000054
:100060009142000091420000914200009142000044
:100070009142000091420000914200009142000034
:100080009142000091420000914200009142000024
:100090009142000091420000914200009142000014
:1000A0009142000091420000914200009142000004
:1000B00091420000914200009142000091420000F4
:1000C00091420000914200009142000091420000E4
:1000D00091420000914200009142000091420000D4
:1000E00091420000914200009142000091420000C4
:1000F000914200002D48000091420000294E00006E
:1001000091420000495300009142000091420000DA
:100110009142000091420000914200009142000093
:100120009142000091420000914200009142000083
:100130009142000091420000914200009142000073
:100140009142000091420000914200009142000063
:10015000DD3E0000F53E00000D3F0000253F0000A1
:1001600091420000E1300000914200009142000005
:100170009142000091420000914200009142000033
:100180009142000091420000914200009142000023
:100190009142000091420000914200009142000013
:1001A0009142000091420000914200009142000003
:1001B000914200009142000091420000574B4CF2E6
:1001C000205210B51A804DF628121A8000BF00BFC9
:1001D00004F062F8524B4FF010621A60514A9A6074
:1001E000514ADA60A3F53043203B1A6812F480725A
:1001F00004D14E490A604FF4A8521A604C4B1A7849
:10020000110703D51A7842F008021A70494B4A4C7C
:100210004A482A221A704A4A00239918A14203D256
:10022000195899500433F8E7464B474900228B424E
:1002300002D243F8042BFAE74448454900235A58B0
:100240001A500433B3F5DE7FF9D1424B424A802184
:1002500003F8011B9342FBD1404B3C4A1A60404BD0
:100260000A221A70A3F5805324225A70A0221A7011
:100270009A799207FCD59A79D406FCD4394A9379B5
:1002800003F00C03082B374BF9D103221A714022DB
:100290005A719A799006FCD5324A9179314B4906C8
:1002A000FBD5314A314911600221516020221A7078
:1002B0009A7902F00C020C2AFAD12D4B2D4A1A60C1
:1002C0002D4B2E4A1A6000225A60072243F8042C54
:1002D0002B4AC3F80C2D62B602F0C4FD134B1B6809
:1002E000DA0705D5274802F01DFC274B274A1A607C
:1002F000274B1B785B0609D5234C244A236893427D
:1003000004D1204802F00EFC0023236005F090FE8B
:1003100003F0C8FF03F040FFFEE700BF0E200540DA
:1003200030800440823F04000100002B14D00340C1
:1003300002D0074000E00740DC91FF1FE46C0000A2
:100340008088FF1FDC91FF1FD47E00200082FF1FEA
:100350000000000000E400E05FE400E008ED00E0E1
:100360000050064000400640448004400000030165
:1003700004800440C010050014E000E0FF76010096
:10038000000020208E0838581CE00340A5C3945A72
:1003900000F00740FFFFFFFFFFFFFFFFFFFFFFFF32
:1003A000FFFFFFFFFFFFFFFFFFFFFFFFFFFFFFFF5D
:1003B000FFFFFFFFFFFFFFFFFFFFFFFFFFFFFFFF4D
:1003C000FFFFFFFFFFFFFFFFFFFFFFFFFFFFFFFF3D
:1003D000FFFFFFFFFFFFFFFFFFFFFFFFFFFFFFFF2D
:1003E000FFFFFFFFFFFFFFFFFFFFFFFFFFFFFFFF1D
:1003F000FFFFFFFFFFFFFFFFFFFFFFFFFFFFFFFF0D
:10040000FFFFFFFFFFFFFFFFFFFFFFFFFEFFFFFFFD
:1004100010B5054C237833B9044B13B10448AFF33E
:1004200000800123237010BDDC91FF1F000000003D
:10043000E46C000008B5064B1BB106480649AFF353
:1004400000800648036813B1054B03B1984708BD07
:1004500000000000E46C0000E091FF1FDC91FF1F32
:100460000000000010B5044603F02CFE204610BD2D
:1004700010B4114C54F82030013344F820308B4232
:1004800008DB00230D4C44F820300B4C44F820309E
:1004900099420BDD002AB8BF524212B2074B53F803
:1004A00020309342BCBF054B43F82020034B33F868
:1004B00020005DF8044B70474C94FF1FA492FF1F6F
:1004C00008B5594B1A68594B1B68D31A322B40F2A6
:1004D000AA80554B1A68554B1A60554B1A78D2F1C1
:1004E000010238BF00221A70524B1B785BB94FF4DF
:1004F000FA61514A11604FF4FA71504A11600021BB
:100500004F4A116060E0012B25D14E4B1B787BB91F
:100510006422494B1A604C4B1B68322202FB03F2E7
:1005200002F5FA62454B1A600022454B1A6062E000
:10053000012B60D16422404B1A60434B1B6832226E
:1005400002FB03F202F5E1623C4B1A604FF4617268
:100550003B4B1A604FE0022B36D13C4B1B784BB91A
:10056000002235490A6035490A604FF4FA61344A7D
:1005700011601DE0012B0DD100212F4B19604FF4AC
:10058000FA7303FB02F22D4B1A6002F5FA622C4B50
:100590001A6030E0022B0BD10021274B196091012A
:1005A000264B1960FA2303FB02F2254B1A6022E066
:1005B000032B20D10023204A1360204A13604FF4FC
:1005C000FA621F4B1A6016E0032B14D11E4B1B68F6
:1005D000322202FB03F202F57A70174908601C49C7
:1005E00009684FF4167000FB012214490A6003F5F4
:1005F0002F73134A1360174B19680F4B1B680620A3
:10060000194402F0FFFA144B19680C4B1B681420B4
:10061000194402F0F7FA114B1968094B1B680520C1
:10062000194402F0EFFA08BD287B0020F891FF1F63
:100630009092FF1FBC7A0020C07A0020AC94FF1F6C
:10064000C49EFF1F119EFF1F4094FF1F8893FF1F32
:100650002892FF1FCC7A00203092FF1F6092FF1F6C
:1006600038B5114B53F8204000EB80052846210E89
:1006700002F040FA681CC4F3074102F03BFAA81CE0
:10068000C4F3072102F036FAE81CE1B202F032FAB4
:100690006424064D2B19204613F8641C02F02AFA34
:1006A00001346C2CF6D138BD0C7A0020F87900208A
:1006B0002DE9F84F494F4FF689033B604FF4F6534D
:1006C0007B6049F27043BB6043F68743FB6044F6AE
:1006D000D3223A614EF21F027A61BB614BF2B12321
:1006E000FB612037082629253D4CDFF804B106EBD5
:1006F000860002F0EBF98146284602F0E7F98246CF
:10070000681C02F0E3F98046A81C02F0DFF94FEA0A
:100710000A4A0AEB096909EB082840443860236853
:100720005B682046594604229847204631460A22F3
:10073000002303F0E1FC23685B682046294901227D
:100740009847204657F8041B0A22002303F0D4FCE4
:10075000204603F0C1FC05350136512DC7D1224E8C
:1007600000251F4CDFF88C80204F05F1640002F05B
:10077000ADF90146707010280FD920460A220023D7
:1007800003F0BAFC23685B68204641460422984780
:10079000204603F0A1FC0023737023685B682046A9
:1007A000394609229847204629460A22002303F0A9
:1007B000A3FC23685B6820460A490122984720462B
:1007C00016F8011F0A22002303F096FC204603F0CE
:1007D00083FC0135082DC8D1BDE8F88F0C7A0020C4
:1007E000807C0020A8690000F7790020A069000043
:1007F000906900009869000070B582B00F2003F086
:10080000B7FCC82002F018FB8D4C23685B682046BB
:100810008C4903229847204603F05EFC0A20012100
:1008200002F0CEF90A20012102F0CAF9864E741EA8
:100830000936022514F8010F294602F0C1F9B44225
:10084000F8D10520012102F0BBF91420012102F0AA
:10085000B7F90620012102F0B3F90020012102F0CE
:10086000AFF91D20012102F0ABF90420022102F0B2
:10087000A7F90320022102F0A3F91C20022102F0B3
:100880009FF91620022102F09BF9704C20460421AA
:1008900001F068FE2046012101F07AFE6C4D2846E9
:1008A000032101F05FFE2846012101F071FE694E2F
:1008B00030461C2101F056FE3046012101F068FE51
:1008C000654E3046162101F04DFE3046012101F003
:1008D0005FFE4FF47A42614B1A60FFF7E9FE28464B
:1008E00001F058FE5E4B1870284601F083FE5D4D06
:1008F0002860204601F04EFE5B4B1870204601F048
:1009000079FE5A4B18602B683BB959494B1E073189
:10091000002203F8012F8B42FBD1082001F07CFF5D
:10092000042001F0A5FF0C2002F00CF9112001F0C9
:10093000CDFF80B24F4B188005F0C2F802460B463F
:1009400005F034F905F044FBC0F307204A4B18606A
:10095000102400940021FF2246F65C5303F00EFCA5
:10096000464B18602046002102F02AF9444B1A68D1
:1009700042F480521A60434B434A1A604FF03842A7
:10098000DA604FF078421A614FF400713F4A11600B
:1009900001213F4A11703F4A1A603F4B1B7813F008
:1009A000010F07BF4FF410723C4B4FF400723C4BE9
:1009B0001A60394B1B7813F0020F4FF400720CBF12
:1009C000384B394B1A60344B1B7813F0040F07BFB8
:1009D0004FF41072354B4FF40072354B1A6046F6E7
:1009E0008142344B1A803448344940F2BF6203F0EC
:1009F00051FB174801F0CEFD194B1870134C2046DF
:100A000001F0C8FD184B1870204601F0F3FD10B935
:100A100002222B4B1A700E4801F0ECFD10B9032294
:100A2000274B1A700A4801F0E5FD30B9074801F07C
:100A3000E1FD10B90422224B1A7002B070BD00BF54
:100A4000807C0020AC690000D0690000507A002052
:100A50004494FF1F189EFF1FD493FF1F149EFF1F77
:100A6000F092FF1F2492FF1F7C92FF1F4C92FF1FEA
:100A7000F87900206492FF1FD47A0020B07A002019
:100A80003C80044000C0024001401F8010B0044080
:100A90007C7C0020000C1F80747C002018B0044077
:100AA00008C004401CB004400CC0044014B0044012
:100AB00004C00440B09DFF1F3492FF1F9115000039
:100AC0008488FF1FF0B44FF4937707FB02F73F12BF
:100AD000C2F1FF03254C2468013446F65F55AC4251
:100AE00002DC224D2C6002E00025204C25601F4CCA
:100AF00024680D1946F65F518D42C4BFA5F5DA454D
:100B00005F3D1B490D601B4D1B4909682E68314430
:100B10004910296003FB00F301FB07F1091201EB07
:100B2000232313F57A6FBCBF03F57A61A3EB41036E
:100B300012490B60114B1B68B3F57A6F03DDC3F5E7
:100B4000FA530E490B600D4B19880D4B23F8141006
:100B50000749096833F8113000FA83F306490B603E
:100B6000072A88BF1846F0BC704700BF5492FF1F89
:100B7000D49EFF1FC894FF1F6892FF1F0492FF1F9F
:100B8000309FFF1F70B5044607286DD83B4B1A688D
:100B9000A2F1400500FB02F2394B1A60394B1B5D94
:100BA000012B43D1384B1B5D002B3FD1374B1B78BA
:100BB000032B3BD10120364B1870364B1878364E3C
:100BC00026F81010411CC9B21970344B1B78994299
:100BD00015D3334E31681144324A1160324A1160E4
:100BE00032482D4A01F0D6FB2C4B1A783368134457
:100BF00033602F4A42F824300022264B1A70284BCB
:100C00001B689D4212D22046FFF72AFD0023214A8D
:100C10001370234A1360234A13601A4A13550121A3
:100C2000244A1170194A1370234A1370184B1B7809
:100C3000012B22D1144B1B5D012B1ED12046FFF747
:100C40000FFD0023134A1370154A1360154A1360F1
:100C50000C4A13550121174A11700C4A1370164A99
:100C600013700B4A137070BD044B1A68A2F1100583
:100C7000AD0000FB02F292008EE770BD8888FF1F76
:100C80002C92FF1F6C92FF1FA07A00208893FF1FF9
:100C9000D87A0020B09EFF1FE093FF1F9888FF1FA7
:100CA0009C92FF1FB87A0020B494FF1FC89EFF1FBC
:100CB0000C7A00205895FF1FBC7A00200A4B53F88D
:100CC00020301A1D8A4202DB1A1F914208DA0023E3
:100CD000064A1380064A1360034B43F8201000E0D5
:100CE00019460846704700BF2094FF1F8A93FF1FD4
:100CF000F079002040F2FE729042B8BF0246034BEA
:100D00009842ACBF10461846704700BF02F8FFFF7C
:100D1000F0B4224D2C680134214A84FB0223E218EE
:100D2000E317C3EB621303EB8303C3EBC303E31AC1
:100D30002B6041F8230000231A48CA581A50043384
:100D40008C2BFAD101250022164916462F4602E0C7
:100D50003D4633461A4651F82240531C51F82300B1
:100D6000844204DD41F8234041F822003546212B1E
:100D7000F0DD002DECD00B4800F11803703000229C
:100D800053F8041F0A448342FAD1074880FB02301B
:100D9000D217C2EBA000F0BC704700BFD09EFF1F6F
:100DA000EBA00EEACC94FF1FE9A28B2E10B582B007
:100DB000644B1B780133DBB2082B02D8614A1370F5
:100DC00002E000225F4B1A705F4B1B78032B15D19A
:100DD00000225E4B1A605B4B1B78062B0ED1132052
:100DE00001F074FD5A4C2146FFF792FF80B2214674
:100DF000FFF78EFFC0F1FF00564B1860524B1B7877
:100E0000022B00F29D804F4B1B78ABB9524B1B78E5
:100E10003BB9102001F05AFD80B2C0F1FF024B4BEC
:100E20001A604D4B1B78012B06D14C4B1A88C2F12E
:100E30007F025200454B1A60424B1B78032B36D180
:100E4000454B1B7823BB112001F040FD0146444B6C
:100E50001880002089B2FFF731FF80B24149FFF7C7
:100E600057FF80B204F02CFE02460B4604F09EFEB3
:100E700005F0AEF8C0F307203B4B18601023009339
:100E80000021FF2246F65C5303F078F9374B1860D7
:100E9000314B1B78012B0AD1354B1888002100916A
:100EA0007F2246F65C5303F069F9304B1860254BFE
:100EB0001B78062B44D12F4B1B78002B40D11320DD
:100EC00001F004FD224C2146FFF722FF80B22146AB
:100ED000FFF71EFFC0F1FF001E4B1860A0F1410399
:100EE0003E2B0BD80022244B1A60AA2300934021EA
:100EF0008022142303F042F9204B1860154B186828
:100F00007F280CDD00221C4B1A604FF4BE73009347
:100F10008021FF22AA2303F031F9184B18600D4BF2
:100F2000186840280CDC0122134B1A602823009318
:100F3000002140224FF4BE7303F020F90F4B1860DC
:100F400002B010BDF192FF1F8893FF1FF4790020BB
:100F5000249EFF1F0C92FF1F0092FF1F4892FF1F4D
:100F60006492FF1FF892FF1FD47A00202092FF1F87
:100F70005292FF1FF292FF1FC87A00208C93FF1F2E
:100F800030B400231946104C34F8132012B28242B8
:100F900002D1002908BF01210133042BF4D1002321
:100FA000094C80B2012534F8132012B2642A00D112
:100FB00019B10133042BF6D103E024F813002946BC
:100FC000F7E730BC704700BF8C88FF1FF8B5424B75
:100FD0001A88424B1A80002002F0B8FC002879D011
:100FE0003F4B1A783F4B1B789A4273D13E4B1B788C
:100FF000012B29D105204FF4FA7101F003FE1420D2
:101000004FF4FA7101F0FEFD06204FF4FA7101F081
:10101000F9FD364B1B78232B4ED101222E4B1A8023
:101020004DE02A7804F124039A420AD10123E355C2
:101030002046FFF7A5FF2E4BE35C2344002246F831
:1010400023200134102CECD1274B1B78032B41D1EA
:10105000264B1B78142B0ED10121264A1170264AEB
:10106000127802EB4202B2F5BE7F2DD94FF4BE7169
:10107000224A118016E0152B0AD101221D4B1A704D
:101080001D4B1B783F2B22D800221D4B1A60F8BD48
:10109000162B07D101221B4B1A70174B1A781A4BCB
:1010A0001A80F8BD172B15D10122164B1A70124B5E
:1010B0001A78164B1A80F8BD0022074B1A800024BC
:1010C0000A4D134F134EACE70C490A80EAE70122A0
:1010D0000B4B1A60F8BD00BF0A7A00205892FF1F20
:1010E0008488FF1F907E00208C7E00208E7E002052
:1010F000F8790020F292FF1F8F7E0020DE93FF1F01
:10110000C87A00200092FF1F5292FF1F4892FF1FD3
:101110008092FF1FDC9EFF1F2DE9F0415D4D2846A8
:1011200001F038FA5C4C2070284601F063FA5B4B02
:1011300018605B4D284601F02DFA5A4B187028466E
:1011400001F058FA584B1860237833B1534B1B68A1
:101150001BB90122554B1A7002E00022534B1A7042
:10116000504B1B7823B118B90122514B1A7002E081
:1011700000224F4B1A704F4B1B780133DBB20F2B01
:1011800002D84C4A137002E000224A4B1A704FF406
:101190008032494B1A604FF480623C331A6000245D
:1011A000464E474D305D01F0FDFC28550134082CBA
:1011B000F8D14FF48032434B1A604FF480624433CD
:1011C0001A6000243D4E404D305D01F0EBFC285587
:1011D0000134082CF8D1354B1B78012B24D1002485
:1011E000394EDFF8F880394F2546A35DCBB998F822
:1011F000003043B9364BE05C20440222354B1A5490
:10120000FFF7BEFE07E0324BE05C20440122314B89
:101210001A54FFF7B5FE2E4BEB5C2344002247F82F
:1012200023200134082CDFD1214B1B78012B2FD137
:101230000024234F284EDFF894802546E35D23BB2E
:101240003378CBB9254B1B7843B9214BE05C204464
:101250000222204B1A54FFF793FE07E01C4BE05C80
:10126000204401221B4B1A54FFF78AFE184BEB5CFB
:101270002344002248F823203378032B05D1144B54
:10128000EB5C2344002248F823200134082CD4D1FD
:10129000BDE8F0814494FF1FF092FF1F2492FF1FCE
:1012A000507A00207C92FF1F4C92FF1F587A00203A
:1012B000A092FF1FD27A002048F00F40D0690000B2
:1012C0009C95FF1F44F00F40009EFF1FDC9EFF1FF8
:1012D000F87900208092FF1F8893FF1FD093FF1F93
:1012E00010B400230749642431F8132012B282425B
:1012F00008BF21F813400133042BF5D15DF8044BEE
:10130000704700BF8C88FF1F2DE9F84306460C4646
:1013100017469846072900F21481904B1D6805FB7B
:1013200001F5632C00F208818D4B195D002940F016
:101330000E8100238B4A13558B4A42F8243052F811
:1013400024201544894A42F82450894A42F824301E
:101350000121884A42F82410874A22F81430EBE031
:101360000122804B1A55824A52F824303B4442F8FD
:101370002430DA097F4B43F8242053F824207F4B94
:1013800053F82430203B9A4220D9012910D14FF044
:101390000009754B43F82490714B03F804902046E4
:1013A000FFF79EFF724B43F82490724B43F8249052
:1013B0006B4B1B5D022B09D100236B4A42F8243092
:1013C0006B4A42F824306B4A42F824306C4B1B784D
:1013D000B34213D1674B53F82420634B43F82420C6
:1013E00053F824102944614A42F8241053F8241079
:1013F0006448294442460A2300F00AFF5D4B53F833
:101400002420594B53F82430D31ADBB20A2B04D8CA
:1014100038F81320584B23F814205B4B1B68012B22
:1014200040F08A8001224F4B1A55514B53F824202B
:10143000174443F82470FF094E4B43F824704F4A79
:1014400052F8242053F82430A2F10B01C91A4F4B53
:1014500043F824104A4B1B78B3425ED1404B1B5DCE
:10146000012B2FD1434B53F824300A3A93420ED923
:1014700000263D4B43F82460394B1E552046FFF7AC
:101480002FFF3B4B43F824603A4B43F824603F4B1B
:1014900053F82430092B15DC0026334B43F8246025
:1014A0002F4B1E552046FFF71BFF314B43F824609E
:1014B0000122304B43F82420304B53F82420334B87
:1014C00043F82420264B1B5D022B15D12F4B53F8DC
:1014D0002430092B10DC294B53F82430224A42F8DF
:1014E00024300021224A42F824100121214A42F8E6
:1014F0002410264A42F82430244B53F824200A3A78
:10150000194B43F8242053F8242053F824101D4885
:10151000294442460A2300F07BFE134B53F8243043
:101520001A4A52F82420D31A013B092B04D838F860
:101530001320114B23F814200F4B33F91400BDE88E
:10154000F883064B1D6805FB01F5AD00E9E60E4B7F
:101550001B68002B3FF404AF5FE700BF8888FF1FC4
:101560008092FF1F1092FF1FC09DFF1FDC7A00209A
:10157000DC9EFF1F9093FF1F8C94FF1F0C7A0020AE
:10158000DC93FF1FC89EFF1FC87A00205C95FF1FD9
:101590002DE9F041954B1A78954B1A70954B1B78B5
:1015A0002BB10F2001F092F97F38934B1860934BC9
:1015B0001A780132D2B21A70914B1B681BB146F6F1
:1015C00056518B4216DD012A14D98E4A12688E4973
:1015D0000968101F884202DB01318B4801608A498B
:1015E000096804328A4202DC0139874A116000210D
:1015F000824A1170591E46F65452914216D87F4ABB
:101600001278012A12D9804A1268191F914202DB0E
:1016100001327D490A607C4A12680433934202DC3D
:10162000013A794B1A600022744B1A70714B1B7887
:1016300063B9764A1360764A13706C4A1370754A20
:101640001360754B1A68754B1A6041E0012B3FD14E
:101650006F4B1B78012B40F06181674B1B68704A10
:1016600013606D4A126802FB03F39A116B4B1A6008
:1016700054E1694B1A68694B1A603C22694B1A6045
:101680005D4B1D68462D21DD674B1B68452B1DDC1E
:10169000664B1B68D3B90024654EDFF8BC81654FEB
:1016A000A35D6BB9385D08EB040301221A54204492
:1016B000FFF766FC3A5D224400215F4B43F822109D
:1016C0000134082CECD10122584B1A60564B1D6096
:1016D000564B1B68012B0AD1584A1368013313601B
:1016E0000A2B04DD0023514A1360544A1360414B16
:1016F0001B78022B04D10023454A1370454A13601E
:101700003A4B1B78032B0DD13B4B1B684C4A12689C
:1017100002FB03F35A1042490A604A490A609B10CF
:101720003E4A1360484B1878464B1968FFF72AFA6F
:10173000304B1B78032B40F0FD8000222B4B1A709E
:101740002D4B1B683E4A126802FB03F39B10344A80
:1017500013603E4A126802FB03F31B122F490B6011
:101760002A4B1B68D3B93A4B1B68012B07D10832AF
:10177000F02A40F3D980FF22344B1A60B8E0002BE6
:1017800040F0B680314B1B68043B082B02DD2F4A2A
:101790001360ADE000222D4B1A60A9E0012B40F050
:1017A000A7802B4B1B684BB9284B1B680833F02BC9
:1017B00040F3BD80FF22254B1A6099E0012B40F0D9
:1017C0009780224B1B68043B082B02DD1F4A1360E5
:1017D0008EE000221D4B1A608AE01E4B1B780133FD
:1017E000DBB2032B3AD81B4A13703AE08893FF1FF1
:1017F000B094FF1FBC7A00204094FF1F087A00209D
:10180000F07900202092FF1FB07A00202892FF1F5D
:10181000119EFF1FBC94FF1F1C9FFF1FBC9DFF1F3D
:10182000C494FF1F9488FF1F4C7A0020FC91FF1F77
:101830009C95FF1FF8790020DC9EFF1FAC9DFF1FC9
:101840000C92FF1F5C92FF1F9892FF1FEC92FF1FEC
:101850004C92FF1FDC93FF1F8092FF1F0022384B2A
:101860001A70384B1B7823B9374B1A68374B1A60FC
:1018700005E0012B03D1364B1A88344B1A60354EE4
:101880003188324D344C0020C9B22A882346FFF7F4
:101890003BFD71880120C9B22A8804F18003FFF75B
:1018A00033FDB1880220C9B22A8804F58073FFF79E
:1018B0002BFDF1880320C9B22A8804F5C073FFF715
:1018C00023FD2648831E1E30002233F8021F0A44DF
:1018D00092B2834201D092B2F7E7214B1A8012B242
:1018E000204B83FB0213A3EBE27212B21E4B1A6071
:1018F0001E4B1868FFF7FEF91D4B18601D4B198829
:101900001D4B1A88FFF7DEF801461C4B1860282093
:1019100001F5006101F076F9BDE8F081184B1B7804
:10192000002B3FF4A6AED3E6164B1A60E0E7154A4B
:101930001360DDE7144B1B78002B3FF44EAFD7E765
:10194000DC93FF1FF292FF1F8C93FF1FC094FF1FB9
:10195000DE93FF1F8C88FF1FAC95FF1F8C94FF1F29
:10196000D07A0020565555551C9FFF1FBC9DFF1F68
:10197000B47A0020B07A0020F4790020209EFF1F66
:10198000119EFF1FEC92FF1F8893FF1F2DE9F84364
:10199000604B1A78604B1A70604C2278604B1A705A
:1019A000604D284600F0F6FD5F4B1870284600F0A9
:1019B00021FE5E4B18705E4D284600F0EBFD5D4B3E
:1019C0001870284600F016FE5B4B18702070012836
:1019D00004D10023594A1360594A1360594B1B78AC
:1019E000002B53D1534B1B786BB160B90122564B7E
:1019F0001A8001F0FFF9554C2368C01A544A106050
:101A000001F0F8F92060534BB3F90030012B1AD1E3
:101A1000514BB3F90030B3B9504C23685B68204692
:101A20004F490A229847204602F056FB0122464BB6
:101A30001A8001F0DFF9454C2368C01A444A10604F
:101A400001F0D8F92060404B1B881AB2012A19D145
:101A50003F4B1A68434BA3FB0213DB08424A136057
:101A6000C3F5DA436033414A136046F65C52934251
:101A700002DD3E4B1A6009E0012B07DC02223B4BE2
:101A80001A6003E013B90022384B1A60294B1B7807
:101A90008BB1294B1B7873B92A4B1B78032B0AD1C6
:101AA000334B1B680133012B02DC314A136002E027
:101AB00000222F4B1A601C4B1B787BB11B4B1B78F1
:101AC00063B9204B1B780133DBB2032B02D81D4ACC
:101AD000137006E000221B4B1A70CBE00022254B4E
:101AE0001A70184B1B78012B4AD10022224B1A7016
:101AF0000A4B1B78002B40F0BD80094B1B78012B53
:101B000040F0B8801D4B1A78D2F1010238BF002294
:101B10001A70AFE05092FF1FB89DFF1FC47A0020DB
:101B20000892FF1FD493FF1F9192FF1F109EFF1F6B
:101B3000189EFF1FB194FF1FD093FF1FCC9EFF1F65
:101B4000B49DFF1FBC7A00208A93FF1F289FFF1FB0
:101B5000D89EFF1F0A7A00205892FF1F807C002029
:101B6000C4690000398EE338E492FF1FF079002049
:101B70002892FF1F587A00208893FF1F119EFF1F95
:101B8000022B77D1884B1B78002B73D1874B1B68B6
:101B9000002B36D1864B1968864A1088864B1B6805
:101BA000C31A0B449BB2138040F2DB52934228D9F4
:101BB0000024824F824EDFF8FC812546E35DEBB9BD
:101BC000335D082B0BD1B8F80030BBB10023A3550F
:101BD0007C4A1370A8F80030E0B2FEF741FDAB5D1F
:101BE00063B9B8F800304BB10823AB550023754AF0
:101BF0001370A8F80030E0B2FEF732FD0134082C73
:101C0000DBD16A4B1B68012B02D10022694B1A8081
:101C10006D4B1B78E3B96D4B1B78012B05D100226E
:101C20006B4B1A6001226B4B1A70694B1B68B3F542
:101C3000FA7F0ADA5E4A12685F4909685B1A134440
:101C4000634A1360B3F5FA7F02DB0122564B1A7028
:101C5000574B1A68584B1A6000235F4A13605F4A5B
:101C6000137008235E4800225E491A545A54013307
:101C7000102BFAD1534B1B78022B40F093804A4B28
:101C80001B78012B40F0838000234A4A1380564A78
:101C90001370564A1370564D494C18461A5DE91890
:101CA00088540133082BF9D1474B1B78002B6ED198
:101CB000464B1B78012B6AD102223B4B1A706AE01B
:101CC0003B5D002B46D198F80030002B42D1E0B2AA
:101CD000FFF706FB082309F804301C44454B1D6838
:101CE000ED0004FB05F5444E3046294600F0DAF9D4
:101CF000304605F5803100F0D5F9304605F5003164
:101D000000F0D0F9304605F5403100F0CBF930460F
:101D100005F5802100F0C6F9304605F5A02100F058
:101D2000C1F9304605F5C02100F0BCF9304605F593
:101D3000E02100F0B7F901232A4A135500222F4968
:101D40000A5523490A600321174A11702C4A14705E
:101D500088F800300134072CB2DD1A4B1B78022BB7
:101D600020D1114B1B78032B1CD1104B1B68244A2C
:101D700012781B498B54234A12789AB1012B11D146
:101D80000023104A1370084A1370BDE8F883064B0D
:101D90001B78022BE1D10024084FDFF85080DFF8D8
:101DA00020908DE7BDE8F8838893FF1F4C92FF1FBA
:101DB000287B0020249FFF1F9492FF1F9C95FF1FEC
:101DC000F8790020BC7A0020C47A00200892FF1F16
:101DD0008493FF1F5895FF1F9C92FF1FB09EFF1F0B
:101DE000A07A00206C92FF1FD87A0020B894FF1FC1
:101DF0008092FF1F8888FF1FC89EFF1FB49EFF1F91
:101E00009892FF1F7C92FF1F10B5274B1B78013360
:101E1000DBB2102B02D8244A137002E00022224BBE
:101E20001A70214B1B78214AD25C02BB204A32F83F
:101E3000132011B211F1800F03DA80321C4921F80E
:101E400013201B4A32F8132011B2802903DD803A97
:101E5000174921F81320164A32F81320803292B223
:101E6000B2F5807F03D80021114A22F8131000F048
:101E7000C1FF104C2060FFF7A9F8FEF721FBFEF729
:101E800095FFFFF749F9FFF781FD00F0B3FF2268E6
:101E9000821A094B1A6004204FF4FA7112B2FEF74D
:101EA000E7FA064B186010BD9C7A00208092FF1F55
:101EB0008C94FF1F209FFF1F2C9FFF1FF492FF1F7A
:101EC00008B50F4800F030F80E4800F043FB0E480C
:101ED00000F040FB0D4800F03DFB0D4800F03AFBE0
:101EE0000C4800230370802343730B490B4A04F012
:101EF0008FF800F0B1FD0A4B1A880A4B1A6008BD32
:101F0000C89EFF1F507A00204494FF1F189EFF1F99
:101F1000D493FF1F3492FF1F650400008088FF1FC9
:101F2000E892FF1F5C7A0020704700BF294B1B78A6
:101F30001A0463B142F0004343F00503264A536399
:101F4000D36A03F47043B3F5405FF9D810E0234B34
:101F50001B6800221A70204B4FF08052DA62052273
:101F60005A631A46D36A03F47043B3F5405FF9D855
:101F7000194AD36A13F0F00FFBD0174B9B6B154B2C
:101F80001B781A044BB1144B5A631A46D36A03F4F4
:101F90007043B3F5405FF9D813E0104B1B68002283
:101FA0001A700D4B4FF08052DA624FF000625A63A4
:101FB0001A46D36A13F0805FFBD0084B1B680122DE
:101FC0001A70054AD36A13F0F00FFBD0024B986BDE
:101FD000C0B270477C7C002000C00240787C0020AA
:101FE000F8B50646FFF7A2FF10F0010F12D00A4D18
:101FF0000A4C0B4F2A682368D31A0A2B04D92B6882
:1020000023603B7811333B703046FFF78FFF10F0B1
:10201000010FEFD1F8BD00BF287B00201C7B002002
:10202000207B002010B50446FFF7DAFF2046FFF7BB
:10203000D7FF184B1B781A045BB142F00602164B0F
:102040005A631A46D36A03F47043B3F5405FF9D874
:1020500012E0124B1B6800221A700F4B4FF0805297
:10206000DA620F4A5A631A46D36A13F0805FFBD0D4
:102070000A4B1B6801221A70074AD36A13F0F00F4B
:10208000FBD0054B9B6B2046FFF7AAFF2046FFF7CE
:10209000A7FF10BD7C7C002000C00240787C00209F
:1020A0000600000810B50C46FFF7BCFF554B1B7827
:1020B0001A0463B142F0004343F0D803524A536319
:1020C000D36A03F47043B3F5405FF9D810E04F4B87
:1020D0001B6800221A704C4B4FF08052DA62D822F3
:1020E0005A631A46D36A03F47043B3F5405FF9D8D4
:1020F000454AD36A13F0F00FFBD0434B9B6B220C85
:10210000404B1B7819046BB141F00041D2B20A4335
:102110003D4B5A631A46D36A03F47043B3F5405FEC
:10212000F9D810E0394B1B6800211970364B4FF07D
:102130008051D962D2B25A631A46D36A03F470430B
:10214000B3F5405FF9D8304AD36A13F0F00FFBD0F3
:102150002D4B9B6B220A2B4B1B7819046BB141F062
:102160000041D2B20A43284B5A631A46D36A03F499
:102170007043B3F5405FF9D810E0244B1B68002191
:102180001970214B4FF08051D962D2B25A631A466E
:10219000D36A03F47043B3F5405FF9D81A4AD36A9F
:1021A00013F0F00FFBD0184B9B6B164B1B781A04E7
:1021B0005BB1E4B22243144B5A631A46D36A03F468
:1021C0007043B3F5405FF9D814E0104B1B68002250
:1021D0001A700D4B4FF08052DA62E4B244F00064A2
:1021E0005C631A46D36A13F0805FFBD0074B1B6811
:1021F00001221A70044AD36A13F0F00FFBD0024B8D
:102200009B6B10BD7C7C002000C00240787C0020CD
:102210002DE9F00F49000C0C5B480078050470B103
:1022200045F0104040F440702043584D68632C4600
:10223000E06A00F47040B0F5405FF9D812E054480D
:1022400000680025057051484FF08055C5622C4349
:1022500044F4407444630446E06A00F47040B0F50E
:10226000405FF9D848480078040468B144F0104051
:1022700089B20843454948630846C16A01F4704180
:10228000B1F5405FF9D810E04148006800240470BF
:102290003E484FF08054C46289B221434163C16A11
:1022A00001F47041B1F5405FF9D83848C16A11F0C6
:1022B000F00FFBD03549896B3448C16A11F0F00F3B
:1022C000FBD03249896B1D46002B5AD000200146B5
:1022D0005C1E2D4E2D4BDFF8B88081464FF0805CA0
:1022E0004FF0010A8C4221DD37784FEA074B4FB19E
:1022F0004BF010475F63DF6A07F47047B7F5405F44
:10230000F9D80DE0D8F8007087F80090C3F82CC019
:10231000C3F834C0DF6A07F47047B7F5405FF9D8F7
:10232000DF6A17F0F00FFBD09F6B1752A14224D148
:1023300037784FEA074B4FB14BF080575F63DF6A46
:1023400007F47047B7F5405FF9D810E0D8F800708F
:1023500087F80090C3F82CC04FF0C0575F63DF6A66
:1023600017F0805FFBD0D8F8007087F800A0DF6A14
:1023700017F0F00FFBD09F6B175201310230A942CA
:10238000B0DBBDE8F00F70477C7C002000C002404D
:10239000787C00202DE9F84F074616461C464D0074
:1023A000FFF740FE3846FFF71BFE3846FFF718FEE2
:1023B0003846FFF715FE2A0C634B1B78190473B1DE
:1023C00041F0104343F40073134360494B630A46E2
:1023D000D36A03F47043B3F5405FF9D812E05C4B65
:1023E0001B6800211970594B4FF08051D9620A4384
:1023F00042F400725A631A46D36A03F47043B3F589
:10240000405FF9D85148C36A13F0F00FFBD04F4B2F
:102410009B6B4D4B1B781A046BB142F01042ADB26E
:102420002A434A4B5A631A46D36A03F47043B3F5FE
:10243000405FF9D811E0464B1B6800221A70434BED
:102440004FF08052DA62AAB242F080525A63DA6ADE
:1024500002F47042B2F5405FF9D83C49CB6A13F000
:10246000F00FFBD0394B9B6B2546002C69D0002028
:102470000146013C344A354BDFF8D4C081464FF069
:1024800080588C4229DD36F900A017784FEA074BB7
:102490006FB14BF010471FFA8AFA47EA0A075F63E9
:1024A000DF6A07F47047B7F5405FF9D810E0DCF851
:1024B000007087F80090C3F82C801FFA8AF747F065
:1024C00080575F63DF6A07F47047B7F5405FF9D85C
:1024D000DF6A17F0F00FFBD09F6BA1422DD136F9C8
:1024E00000A017784FEA074B6FB14BF080571FFAE7
:1024F0008AFA47EA0A075F63DF6A07F47047B7F5AD
:10250000405FF9D814E0DCF8007087F80090C3F859
:102510002C801FFA8AF747F0C0575F63DF6A17F015
:10252000805FFBD04FF00107DCF800A08AF8007054
:10253000DF6A17F0F00FFBD09F6B01310230A94228
:102540009FDBBDE8F88F00BF7C7C002000C002400C
:10255000787C0020002202600A2181808271C27191
:10256000704700BF38B50446CDB2C571284600F0AB
:1025700019FB0023A371284600F014FB08B10323C4
:10258000A371024B1B68236038BD00BF287B00206D
:102590008180704738B50446C07900F003FB0030F5
:1025A00018BF0120A37903F0F702A271C3F3400121
:1025B000884206D00E4B1B68236082F00202A27193
:1025C00012E00B490D682168691AA588A9420BD34E
:1025D00003F00103984207D0054B1B68236082F08B
:1025E000010242F00802A271A079C0F3C00038BD18
:1025F000287B0020807900F00100704730B4394A10
:102600003949136813F0800FFBD10B6813F0800F6A
:10261000F7D172B6354B1B78002B5FD0344B1C685A
:1026200004331D68043318680433196804331A68C6
:1026300004331B682C44204401440A441A44C2F366
:102640004E0242F400422B4B1A602C331C680433B8
:102650001D68043318680433196804331A68043396
:102660001B682C44204401440A441A44C2F34E021D
:1026700042F40042204B1A6003F108131C68043333
:102680001D68043318680433196804331A68043366
:102690001B682C44204401440A441A44C2F34E02ED
:1026A00042F40042154B1A602C331C6804331D6839
:1026B000043318680433196804331A6804331B6838
:1026C0002C44204401440A441A44C2F34E0242F40A
:1026D00000420B4B1A600022044B1A7062B630BCE9
:1026E000704700BF24B0034024B00B40227B002081
:1026F00038B003402CB0034030B003402CB00B4046
:1027000030B00B4060223A4B1A70E12201331A704C
:10271000384B1B78082B10D1012203F1804303F5BD
:102720006C331A60132334490B6001F5FF2101F269
:10273000FC710A60314A13601FE00A2B0DD1392267
:102740002F4B1A6013232C490B6001F5FF2101F276
:10275000FC710A60294A13600FE00C2B0CBF352274
:102760003D22274B1A60122323490B6001F5FF21FC
:1027700001F2FC710A60214A1360224B1B7833B1CD
:102780000123214A136002F50022136005E00023B3
:102790001D4A136002F5002213601C4B1B78012BAD
:1027A00006D880231A4A136002F5002213601AE04B
:1027B000042B06D88423164A136002F50022136006
:1027C00011E0082B06D88523114A136002F5002278
:1027D000136008E0102B94BF862387230C4A1360F4
:1027E00002F50022136001220A4B1A70704700BFE5
:1027F000004007409988FF1F0CB003400CB00B400D
:1028000008B00340257B002020B003409A88FF1FBA
:1028100024B00340227B002008B50C2804D91028DE
:1028200028BF1020102307E00A2804D8092834BF45
:1028300008230A2300E00C23DAB2101A08490870B2
:1028400008490978994209D0064B1A70064B1B7843
:1028500013B10022054B1A60FFF754FF08BD00BFFB
:10286000217B00209988FF1F227B002024B0034099
:1028700010B50446124B1B780BB1FFF7BFFE012CBD
:1028800003D800220F4B1A6017E0042C03D804224F
:102890000C4B1A6011E0082C04D80522094B1A6071
:1028A00008220AE0102C04D80622064B1A601022D7
:1028B00003E00722034B1A602022034B1A7010BD5D
:1028C000227B002024B003409A88FF1F2DE9F843A3
:1028D0000D2813D9172802D80E38C0B20EE0A0F187
:1028E0001A03DBB2052B02D80938C0B206E0A0F10A
:1028F0002203DBB2062B73D81838C0B23A4B1E5CE9
:102900003A4B1B780BB1FFF779FE16F0800F29D1F7
:1029100072B6374C374D4FF0010726602F7062B604
:1029200072B6236813F0800F04D12B7813F0FF0FD9
:102930000FD1F2E7304B186800222E4B1A7062B6A6
:102940002E4B1B781841BDE8F8832B7813F0FF0F4E
:10295000E3D062B601F054FC72B6236813F0800F26
:10296000F3D0E7E772B606F040095FFA89F9244F21
:10297000244C06F03F06244D4FF00108B9F1000F3A
:1029800004D03B6823F010033B6003E03B6843F056
:1029900010033B60266085F8008062B672B623683B
:1029A00013F0800F04D12B7813F0FF0F0FD1E5E760
:1029B000164B18680022144B1A7062B60F4B1B7826
:1029C0001841BDE8F8832B7813F0FF0FD6D062B61C
:1029D00001F016FC72B6236813F0800FF3D0E7E71E
:1029E0000020BDE8F88300BFD8690000227B0020EA
:1029F00000B00340247B002010B00340217B002066
:102A00000CB00B4000B00B40237B002010B00B40FB
:102A1000094B1A6842F480521A60084B1B781BB1AC
:102A20008022074B1A7002E0C022054B1A7080F317
:102A30000C00044B188070472C800440257B00203C
:102A400021C00C4000C00C40024A137813F0010F63
:102A5000FBD070470100024010B584B0174B6C46A4
:102A6000186859689A68DB680FC4154B1B7813F017
:102A7000020F19D08022134B1A70332204331A70BC
:102A80000322013B1A7072B66B4643F001030E4CF1
:102A90002046984762B6237813F0700304D0237061
:102AA00009E0013B03D106E044F6216304490A78BA
:102AB00012F0010FF5D004B010BD00BFF0690000A6
:102AC00001000240070002400000024010B5044629
:102AD000B0F5006F0AD2064B1B7813F0010F01D13D
:102AE000FFF7BAFF04F1A054207810BD002010BDFC
:102AF0000100024038B504460D46B0F5006F0ED215
:102B0000074B1B7813F0010F01D1FFF7A5FF04F16C
:102B1000A0542378AB4202D02570FFF795FF38BD53
:102B200001000240044B00221A6004490A60044A72
:102B3000106010221A60704714D0034004D0034084
:102B400000D0034018B1102828BF102000E0012059
:102B5000014B1870704700BF9B88FF1F21281ED8AB
:102B60000F4B53F8303093F8802212F0FF0F08D04B
:102B700019B1012283F880207047012283F80021D7
:102B80007047074B03EBC000436821B11A6842F05D
:102B900003021A6070471A6822F002021A60704736
:102BA000006A0000212806D8044B53F8303093F80F
:102BB0000002C0B270470020704700BF006A0000EA
:102BC00021281CD80E4B03EBC0035B68012908D1F8
:102BD0000B4A52F8302082F880124FF4A2721A6029
:102BE0007047074A52F83020002082F8800219B955
:102BF0004FF480721A60704740F203121A607047F7
:102C0000006A000010B5044628280FD15D4B1B78E0
:102C10000B2B03D8C3F10C03994003E00C2B84BFAA
:102C20000C3B19410846FFF7F3FE10BD554B1B78CE
:102C3000012202FA03F0002908DC20460021FFF7F8
:102C40008DFF20460121FFF7BBFF10BD0A468842D9
:102C500008D820460121FFF781FF20460121FFF718
:102C6000AFFF10BDE01EC0B2012806D8464800687C
:102C700000FB011222FA03F310E0202C01D0192CE2
:102C800006D14248006800FB022222FA03F305E065
:102C90003F48006800FB011222FA03F3E01E1D28E2
:102CA00064D8DFE800F0474E402B63631D24636364
:102CB0006363636363636332390F16635C636363E7
:102CC00063636355334A136040F24442324B1A60E7
:102CD00010BD324A136040F24442314B1A6010BDBD
:102CE000304A136040F244422F4B1A6010BD2F4A05
:102CF000136040F244422E4B1A6010BD2D4A1360FF
:102D000040F244422C4B1A6010BD2C4A136040F232
:102D100044422B4B1A6010BD2A4A136040F24442D1
:102D2000294B1A6010BD294A136040F24442284BD7
:102D30001A6010BD274A13604FF45172264B1A6077
:102D400010BD264A13604FF45172254B1A6010BD16
:102D5000244A13604FF45172234B1A6010BD234A6A
:102D600013604FF45172224B1A6010BD20467F2928
:102D7000D4BF00210121FFF7F1FE20460121FFF71A
:102D80001FFF10BD9B88FF1F0890034008800B4069
:102D9000088003401080034004B0044018800340C2
:102DA00008B00440208003400CB004402880034059
:102DB00010B004403080034010C00440388003400D
:102DC00014C004404080034018C0044048800340C1
:102DD0001CC0044010900340309004401890034001
:102DE0003490044010800B4048A0044018800B40F1
:102DF0004CA0044072B60C4B1B680C4A12680C497C
:102E0000096862B611F0806F02D0322B88BF0132A0
:102E1000C3F5BB33FF330749A1FB03039B094FF401
:102E20007A7000FB0230704718E000E0287B002039
:102E300004ED00E0ABAAAAAA38B50546FFF7DAFF11
:102E4000044625B938BD013D0AD004F57A74FFF770
:102E5000D1FF001BB0F57A7FF5D201F0D1F9F6E78A
:102E600038BD00BF10B5254B4FF400021A604FF07B
:102E700080721A604FF000721A604FF080621A6020
:102E80004FF000621A6000201D4B18604BF6FF7176
:102E90000433196028231B4A136008321360083278
:102EA000136008321360083213600832136008326E
:102EB0001360083213600922134C226004F5805419
:102EC0000434206004342160043423600834236017
:102ED000143C226004F5FE24043420600B48016099
:102EE0000B490B6008310B600A4B1A60FFF70AFCB4
:102EF000FA20FFF7A1FF00F065FC10BD08E100E03B
:102F0000048003400C8003400080034008800B4095
:102F10000C800B4000800B4030B40E4B1B7843F00C
:102F200002020D4C04EBC20460600C4800780028DB
:102F30000CBF8824C82444EA0141074D45F83210EB
:102F400080F00100054A107083F00103014A1370FC
:102F500030BC7047947B00200080FF1F0D7C002058
:102F600010B4431E032B11D872B60A4A52F823003C
:102F700050B14268074941F82320074A32F813400C
:102F80000188611A22F8131062B600E000205DF893
:102F9000044B7047847B0020847E00200138032886
:102FA0000DD872B6074B53F820302BB100200130FA
:102FB0005B68002BFBD100E0002062B67047002068
:102FC000704700BFD87B002038B572B601231B497B
:102FD0001B4C5A1812F8012C12F0080F24D09A003A
:102FE00054F832506DB9164B03EBC20108304860FB
:102FF000144943F83210144B1A78013A1A7062B629
:1030000038BD42F0010254F832506DB90C4B03EB5D
:10301000C201083048600D4943F832100A4B1A7853
:10302000013A1A7062B638BD0133052BD1D162B6B0
:103030000022054B1A7000F029FC38BD386B0000E7
:103040000080FF1F88004000027C0020C800400074
:1030500010B4431E032B37D8400140F010001C4A27
:10306000104472B61B4AD25C032A09D8DFE802F08A
:1030700019021B050830022216E00830042213E072
:10308000154A52F823201AB9134A42F8231003E0D4
:10309000124A52F823205160104A42F8231062B6B7
:1030A00012E0032200E005220A4CE25401F1080379
:1030B000436000F00803002B0CBF8823C8230A8854
:1030C00043EA0243036062B65DF8044B704700BFF9
:1030D0000080FF1F407B0020D87B0020E87B002081
:1030E0002DE9F84FA94CDFF8F492DFF8F4A2DFF8ED
:1030F000F4B22578EDB215F0040F1FD0A44B1B7865
:1031000013F0FF0F18D0A34B1B7803F0FF022BB175
:10311000531EDBB29F4A137003B900BE9E4B1B784F
:1031200003F0FF0233B1531EDBB29B4A13700BB99D
:1031300000F0B6FE00F0F2FB0423237015F0080F38
:1031400000F0D48299F80030DBB21D0940F01582FE
:10315000924D9E0805EBC6035A6855F83630C3F306
:103160008303013B0C2B00F20482DFE813F0BB0168
:10317000BB01020202020202020202020202DC019E
:103180000202020202020D00854913680B605268B8
:103190004A60844A45F83620002283490A607F4904
:1031A0000A618A610121814A11709BB240F28162F9
:1031B000934218D8B3F5D06F29D2B3F5817F00F0D0
:1031C000178106D8802B00F0C380822B00F0C680C8
:1031D00056E140F20232934200F01F81B3F5A06F36
:1031E00000F052814CE1B3F5106F16D004D8B3F55E
:1031F000086F00F0A78043E140F62112934200F0EF
:103200006D8140F62122934200F03E8138E1684B07
:103210005D68002D40F016812EE1614B9A785C4B81
:103220001A705E4D05F180062B6A13F0800F03D0F3
:10323000686A083800F02AFB0835B542F4D1DFF897
:10324000A881002637465B4AB05828B1456800F08F
:103250001DFB0DB12846F9E7002356497350564A25
:10326000B350564BF05828B1456800F00FFB0DB134
:103270002846F9E7002351497350514AB35028F8C2
:10328000023F504BFB5C023B032B0AD8DFE803F004
:103290000206020600224B4BDA5502E00122494B9E
:1032A000DA5501370436102ECDD10022464B1A7064
:1032B0000125464FDFF83481384E05EB080313F83B
:1032C000013C07F8043B13F0080F2DD000F0BEFAC4
:1032D00048B1A90006EB451200F1080353603C4ACF
:1032E00046F8312007E0AB00002246F83320364B89
:1032F0001A7801321A7000F0A9FA58B1AB0043F005
:10330000010306EBC30100F108024A60254A46F8B2
:10331000332009E0AB0043F00103002246F83320DC
:10332000294B1A7801321A70AA0042F002010023D8
:1033300046F8313042F0030246F8323001355F453D
:10334000BBD114E2124B1B78224D2B700127A0E059
:10335000204D00232B706B7002279AE0104B9B8846
:10336000042B03D90F221C4B1A70B7E0194A002115
:1033700011705170184A12F8233013F0020F00F048
:103380008680144D01232B70022782E080200740A5
:103390000C7C0020957B0020547C00200080FF1FC7
:1033A000F87B0020C80040002C7B00200D7C002012
:1033B0003C6B0000847B0020307B0020D87B002009
:1033C000E87B0020407B0020027C0020C4200740D6
:1033D00088004000047C0020C02007409020074067
:1033E00094200740D4200740827E0020386B0000E4
:1033F000964B9B8803F07F03042B02DC934A528890
:103400001AB10F22924B1A7068E0914A12F82310F9
:1034100021F0020102F82310A9E18C4B9B8803F0F4
:103420007F03042B02DC894A52881AB10F22884B91
:103430001A7053E0864A12F8231041F0020102F894
:10344000231094E1814B5E889F88824BA3F10C028C
:10345000114633F80C0CB04209D133F80A0CB842CB
:1034600005D1360A032E0CBF2F78178911E00D699C
:103470000C330C32002DEBD10F22754B1A702DE05E
:103480000F22734B1A7029E000273D4601E0022706
:10349000714D6E4BDB889F4228BF1F46402F34BFC3
:1034A0003E46402628463146FFF736FD3544BF1BD1
:1034B00003D13F2E00F2608110E0402F34BF3E4622
:1034C000402628463146FFF727FD3544BF1B01D172
:1034D0003F2E03D9614B1D60614B1F8001238AF889
:1034E000003046E0594B19685E4B994217D1574B53
:1034F00059685D4B994212D11378A92B0FD153789B
:10350000452B0CD19378C22B09D1D3786B2B06D1E4
:103510000522564B1A7000200146FFF7FDFC544B64
:1035200045F8363025E04D4B1E68BEB14C4FB7F81C
:103530000080B8F1400F34BF45464025304629464B
:10354000FFF7EAFCC5EB08039BB23B800BB9402DAB
:1035500001D1354400E00025404B1D603B4B1B88EA
:10356000B3F5A06F05D1394B00225A709B784149C1
:103570000B7001238AF80030B5E03F4E9F0806EB40
:10358000C708D8F80420A2F10800013DEDB213F0FD
:10359000080F47D000F07AF9384B53F825304BB379
:1035A0005A68364941F8252003F10802C8F804207A
:1035B000334A525D032A12D8DFE802F002060A0EEF
:1035C00003212F4A51550AE002212D4A515506E0A8
:1035D00005212B4A515502E00421294A515518F082
:1035E000080F0CBF8822C8221B8842EA034346F812
:1035F000373078E0224B5B5D032B0BD8DFE803F01C
:103600007373020600221E4B5A556CE001221C4BBC
:103610005A5568E018F0080F0CBF02220322184B1D
:103620005A5560E056F837301B0C22F8083C002B46
:1036300051D0002322F8063C42F8043C114B53F8C9
:1036400025300BBB0F4B43F8250021E0F87B002011
:10365000C0200740486B0000047C00202C7B002029
:10366000007C00202109000301000400957B00205C
:10367000C8004000982007400080FF1FD87B002032
:10368000407B0020847B00203F4B53F8253058605E
:103690003D4B43F825003D4B33F8151032F8082C0C
:1036A0000A4423F8152000F0D1F860B100F10803B6
:1036B000C8F8043018F0080F354B364A08BF1346D7
:1036C00046F837300FE0002346F83730324B1A788F
:1036D00001321A7007E018F0080F2D4B2D4A08BF71
:1036E000134646F837300823237002E515F0010F22
:1036F00022D02A4902230B700022294B1A70294B31
:1037000024481860284C5C6098602848D8601A618A
:103710009A610D20264B1870FF2326480370083845
:10372000037018300270244A13709F22234B1A70C2
:1037300001230B70BDE8F88F15F0800F05D00D2226
:103740001B4B1A708022403B1A7015F0020F06D0F6
:10375000184B1A78D2B21A700222083B1A7015F070
:10376000100F0ED01022164B1A70BDE8F88F0020F3
:103770000146FFF7D1FBB1E628460021FFF7CCFB5D
:10378000ACE6BDE8F88F00BF307B0020847E0020CF
:10379000C800400088004000027C002094200740C0
:1037A000947B00200080FF1F447B0020987B00203A
:1037B000C0200740882007408C2007408420074015
:1037C0008020074008B501F033FE00231B491A464C
:1037D0005A50C81842600833882BF9D1184B1A6820
:1037E00042F480221A60154BC3F30721154A117069
:1037F000C3F30741143211701B0E04321370FF2300
:10380000343A137008321370783A137001238432FB
:10381000137000216C3211707C3A137070220A4BC5
:103820001A704FF40072A3F241331A60102203F1B0
:10383000C04303F5C8231A7008BD00BF0080FF1FF6
:10384000348004409C20074049E400E072B60D4BF0
:103850001A68B2FA82F30F2B02D962B600207047C1
:103860004FF00041D94022EA010206490A6062B6DF
:10387000054903EBC303DB00C8180022CA504260AD
:10388000704700BF9C88FF1F0084FF1F08B50F4BC7
:10389000C31A0F4AA2FB03131B090F2B14D80D4A9E
:1038A00012783AB10C4A127812F0FF0F02D0FFF7EB
:1038B0008BFB08BD72B6094A4FF0004121FA03F3B1
:1038C00011681943116062B608BD00BF0084FF1F74
:1038D000398EE338027C00200C7C00209C88FF1F7E
:1038E00010B504460A4B1B783C2B08D1094B1B68CA
:1038F00063B109483C2100229847002301E03B2B9B
:1039000004D8591C024A1170034AD45410BD00BF98
:103910008D7E0020347C0020947E002008B5094B69
:103920001B786BB9084B196851B14B8843B19B00A8
:103930000B800320FFF78CFBFFF788FF024B18601A
:1039400008BD00BF287C0020307C0020F8B506466A
:10395000974B1B68ABB9974B1B7813F0FF0F00F028
:1039600012810420FFF7FCFA914B1860002800F048
:103970000C8103882BB9FFF789FF00208C4B18605E
:10398000F8BD8B4B18684288910800EB81018D6867
:10399000043201888A4201D2428006E0FFF776FFB6
:1039A0000420FFF7DDFA824B186005F00F042B0AA4
:1039B00003F00F00471CA4F10802062A00F29280CF
:1039C00016B1BE4240F0E380C5F30333082C0ED19C
:1039D000082B3BD10022784B1A70784B1B68002BC8
:1039E00076D03846C5F307412A0E984770E0092C77
:1039F0001BD1092B3BD12A0E0BD001216E4B197024
:103A00006F4B1B68002B63D03846C5F307419847BE
:103A10005EE00022684B1A70684B1B68002B57D081
:103A20003846C5F30741984752E00A2C0ED10A2BBD
:103A30002DD10222604B1A70624B1B68002B47D0BD
:103A40003846C5F307412A0E984741E00B2C0ED1AA
:103A50000B2B2BD10322584B1A705B4B1B68002B8E
:103A600036D03846C5F307412A0E984730E00C2C73
:103A70000DD10C2B40F08D8004224F4B1A70534B0C
:103A80001B682BB33846C5F30741984720E00D2C3F
:103A90000CD10D2B7FD10522474B1A704C4B1B6864
:103AA000B3B13846C5F30741984711E00E2C74D1E5
:103AB0000E2B74D10622404B1A70464B1B683BB14B
:103AC000690C01F47E51C5F306423846114398470C
:103AD000414B1F702A0C414B1A702D0E404B1D702C
:103AE0000120F8BD042C0BD1D8B2FFF7F9FEC5F3C5
:103AF0000740FFF7F5FE280EFFF7F2FE0020F8BDA5
:103B0000621F022A1FD8D8B2FFF7EAFE052C03D99C
:103B1000C5F30740FFF7E4FE072C02D1280EFFF79C
:103B2000DFFE304B19782D4A117000221A700722DF
:103B3000214B1A702C4B1B68002B32D02B480122D2
:103B400098470120F8BD0F2C11D1264A127822B1D6
:103B5000D8B2FFF7C5FE0020F8BD0821164A117043
:103B6000234A1268002AB3D0D8B29047B0E7022C9B
:103B700019D10922104B1A701E4B1B68ABB1280CCF
:103B800098470120F8BD0020F8BD0020F8BD0020B6
:103B9000F8BD0020F8BD0020F8BD0020F8BD0020D1
:103BA000F8BD0120F8BD0020F8BD0120F8BD00BF20
:103BB000387C00200C7C00208C7E0020147C0020AF
:103BC000407C0020207C00203C7C0020187C0020D1
:103BD000247C00201C7C0020907E00208E7E002013
:103BE0008F7E00208D7E0020347C0020947E00207B
:103BF0002C7C0020107C0020F8B5194B1B7813F0AA
:103C0000FF0F24D0174C0227154E206820B93846E4
:103C1000FFF7A6F92060E8B14388C218157A6DB1A4
:103C200001330288934206D3FFF730FE00220D4B8A
:103C30001A602846F8BD43802846F8BDFFF726FEE7
:103C400000232360337813F0FF0FDED105E04FF03F
:103C5000FF30F8BD4FF0FF30F8BD4FF0FF30F8BD3A
:103C60000C7C0020507C002070B5134B1B7813F0A7
:103C7000FF0F16D0114C02260F4D206820B9304698
:103C8000FFF76EF9206078B1438803441B7A73B95B
:103C9000FFF7FCFD002323602B7813F0FF0FECD11E
:103CA00007E04FF0FF3070BD4FF0FF3070BD184699
:103CB00070BD4FF0FF3070BD0C7C0020507C0020A8
:103CC00038B5194B1B6853B9184B1B7813F0FF0F0D
:103CD00024D00220FFF744F9134B186000B3124BB5
:103CE0001868058843889D4212DDC218127A7AB19D
:103CF00003F108020244ED1A012303E012F8011F48
:103D0000013319B11C46AB42F8D100E023464BB950
:103D1000FFF7BCFD0020044B186038BD002038BD03
:103D2000002038BD204638BD507C00200C7C00208F
:103D30002DE9F047044601223B4B1A700F4600293B
:103D40006DD0DFF8F090DFF8F0A01E46DFF8DC80E1
:103D5000D9F80030A3BB9AF8003013F0FF0F06D15A
:103D60000022314B1A704FF0FF30BDE8F08744F26B
:103D7000D9550120FFF712F9052806D80123337021
:103D8000FFF764FDC9F80000D0B9013D02D098F8F2
:103D900000304BB10122254B1A700022224B1A70C1
:103DA0004FF0FF30BDE8F0870023337000F028FAB1
:103DB000012333709AF8003013F0FF0FD9D1CFE709
:103DC000002388F80030D9F800104A88C2F1400575
:103DD000AF4238BF3D4602F108030B442A444A80F3
:103DE0007F1B3DB1254414F8012B03F8012BAC4295
:103DF000F9D100E025464B883F2B03D805220C4B18
:103E00001A7009E040230B800024094B1C7001202C
:103E1000FFF71EF9C9F800400FB12C4698E70020C3
:103E2000014B1870BDE8F087447C00204C7C0020DA
:103E3000547C0020487C00200C7C002000B583B01E
:103E400002AB03F8010D18460121FFF771FF03B023
:103E50005DF804FB08B50F4B1B7813F0FF0F17D06C
:103E60000D4B1968A1B14A8892B100200B4B187014
:103E700013463F2A04DCCA1810720133402BFAD1D2
:103E800040230B800120FFF7E3F80022024B1A6069
:103E900008BD00BF0C7C0020487C0020547C002022
:103EA00008B50C4B1B7813F0FF0F12D10A4B1968A1
:103EB0004B883F2B05DC0020CA1810720133402BC1
:103EC000FAD140230B800120FFF7C2F80022024BF9
:103ED0001A6008BD447C0020487C002008B50122FF
:103EE000024B1A60024B1B68984708BD0C710340D7
:103EF000607C002008B50122024B1A60024B5B680F
:103F0000984708BD1C710340607C002008B5012261
:103F1000024B1A60024B9B68984708BD2C71034006
:103F2000607C002008B50122024B1A60024BDB685E
:103F3000984708BD3C710340607C0020054B1A681F
:103F400042F400021A600022034B1A600122034B64
:103F50001A7070473C800440007003405C7C002075
:103F60000122064B1A6003F588333C331A6822F4A9
:103F700000021A600022024B1A7070470070034062
:103F80005C7C002010B442781401164B234443603B
:103F9000154B234483600369144C44F82230836832
:103FA00000221A6043681960836803221A6043780C
:103FB0004433DBB2037303F1604303F56443427B94
:103FC0001A70027B53119B0003F1604303F56143B8
:103FD00002F01F02012101FA02F21A605DF8044B9F
:103FE000704700BF0071034008710340607C0020EF
:103FF00070B504460D46134B1B780BB9FFF79EFFB7
:10400000114B1B788BB1104B5B7843B10E4B9B78F7
:1040100043B10D4BDB789BB903231E4607E0012318
:104020001E4604E002231E4601E00026334663706C
:1040300020462946FFF7A6FF0120034B985570BD87
:10404000002070BD5C7C0020587C002010B5836887
:1040500000221A60037B5C1103F01F03012101FAA7
:1040600003F30A4941F82430094B41785A541B782C
:1040700053B9074B5B783BB9054B9B7823B9044B8D
:10408000DB780BB9FFF76CFF10BD00BF80E100E0EB
:10409000587C002070B504460E46154603781BB1C7
:1040A000FFF7D4FF00232370266120462946FFF73F
:1040B0009FFF10B10123237001E0002323702078BB
:1040C00070BD00BF10B5044603780BB1FFF7BEFF0B
:1040D0000023237010BD00BF00B583B0054B1B88C3
:1040E000ADF8043003685B6801A90222984703B069
:1040F0005DF804FB106B0000F0B58BB0164622B9DA
:1041000003681B68C9B298472FE0012A08BF0A2636
:1041100021B930228DF82520212417E021243746AB
:10412000B1FBF6F506FB1515EDB22246092D94BF3D
:1041300030353735EDB20DF1280E724402F8245CAB
:10414000B1FBF7F111B1013CE4B2E9E733B1013C55
:10415000E4B20AAB23442D2203F8242C03685B68E5
:1041600001A92144C4F1220298470BB0F0BD00BF61
:1041700008B1014A10607047707C002010B4401AEA
:10418000019CE41A04FB00F4521A94FBF2F0184468
:104190005DF8044B704700BF08B5FCF72DFBFDF739
:1041A00033FE00F02DF8FAE708B5FFF789FD08BDEA
:1041B00008B5FFF721FD08BD08B5FFF755FD08BD9F
:1041C00008B5FFF747FE08BD08B50846FFF736FEFD
:1041D00008BD00BF08B508461146FFF7A9FD08BD98
:1041E000704700BF044B00221A714FF47A71996036
:1041F0001A73024A1A607047807C0020206B00000E
:1042000008B50F4B1B78CBB901220D4B1A70FFF785
:1042100057FD08B1FFF7E4FF00F07EFA08B101F0A6
:10422000D1F900F077FD08B101F062FA01F016F85B
:1042300008B101F0F3FA0022014B1A7008BD00BF6B
:10424000907C0020024B1A6801321A60704700BF50
:10425000287B002008B50D4C236813F4802F01D073
:10426000FEF73EFF236813F4806F01D000F0DEFA02
:10427000236813F4006F01D000F0D6FD236813F417
:10428000805FE9D001F060F8E6E700BF34800440C9
:1042900008B5FFF7DFFF00BF1022014B1A807047FF
:1042A00000200540704700BF024A136818441060A0
:1042B00018467047A088FF1FEFF31383ABB9EFF3E5
:1042C0001083ABB9EFF3058323B10F2B05D9094A4E
:1042D000985C03E04FF4807000E00020EFF311835E
:1042E0003BB1834238BF184670474FF0FF307047EC
:1042F00000207047F0E300E030B40023B0FBF2F49C
:1043000002FB14041D46092C94BF30343734E4B248
:10431000CC54B0FBF2F008B10133EFE70D440022BA
:104320006A70934207DD885CCC5C8C54C8540132BF
:10433000013B9A42F7DB084630BC7047194B1A68BC
:1043400042F480621A600023174A1370174A1370F0
:10435000174A1370174A1370174A137040F213323A
:10436000164B1A604FF4517204331A60C0F3443292
:10437000134B1A70C0F347125A7000F01F00987266
:1043800004229A700221D9745A7588221A743C2228
:10439000DA7040220B4B1A704FF40052A3F229330B
:1043A0001A607047348004401C7D0020997C0020F6
:1043B000247D00201D7D0020987C002040A004402A
:1043C00000A006402DE400E0164B9B7803F0EC03C0
:1043D00000F00302134310F0040F18BF43F0100362
:1043E000104A937000F00F03042B04D11346927906
:1043F00042F040029A710B4B5A7902F0EF0210F032
:10440000100F18BF42F01002064B5A719B7903F04F
:10441000EF0310F0200F18BF43F01003014A93710F
:10442000704700BF00A0064010B5144B1B6813F482
:10443000806F21D0124B1B7813F0FF0F06D0104C69
:10444000FFF7DEFE237813F0FF0FF9D14FF400528F
:104450000C4B1A6000230C4AD37040F203120B4934
:104460000A6004310A600A4A13700A4A13700A4B40
:104470001B680BB101221A7010BD00BF34800440CC
:10448000987C002084E100E000A0064040A00440A9
:104490001C7D0020997C0020947C002010B50446EF
:1044A000094A137813F0FF0FFBD120460121FEF7D4
:1044B00087FB20460021FEF751FB044B53F83420C4
:1044C000034B1A6010BD00BF987C0020006A0000FA
:1044D000207D002010B50D4B1B6813F4806F12D0A7
:1044E00021280CD80A4C0B4B53F8303023600121A3
:1044F000FEF766FB236800221A70012010BD002021
:10450000034B186010BD002010BD00BF3480044074
:10451000947C0020006A0000114B1B6813F4806F2C
:104520001BD0122804D140F202320E4B1A600DE06B
:10453000142804D140F202320B4B1A6006E00B4BF8
:104540005A7B02F0FE025A7300207047074B5A7BD9
:1045500042F001025A73012070470020704700BFEB
:10456000348004400CA0044014C0044000A0064065
:104570002DE9F04107461F4B1B6813F4806F37D0BD
:104580001D4B1B680BB101221A701C4B1C780134A7
:10459000402C28BF00241A4D1A4EDFF86C8017E01B
:1045A000FFF78AFE40280FDC337913F0800F0FD01D
:1045B0002B780133402B28BF002318F80320D2B2F8
:1045C000F271DBB22B7003E0FF2801DDFFF718FE6C
:1045D0002B78DBB29C42E3D0FFB20B4B1F5501227C
:1045E0000A4B1A70E4B2054B1C70BC22054BDA7002
:1045F000BDE8F08134800440207D0020247D00202F
:104600001D7D002000A006409C7C0020987C00209E
:104610002DE9F84F0746284B1B6813F4806F49D0EB
:10462000264B1B680BB101221A7007EB010B5F458B
:104630003DD2DFF89890224EDFF88C80DFF890A012
:1046400099F800400134402C28BF00243578EDB2A1
:10465000A54220D1BC2388F80330FFF72DFE402867
:1046600011DC98F8043013F0800F10D03378013348
:10467000402B28BF00231AF80320D2B288F8072065
:10468000DBB2337003E0FF2801DDFFF7B9FD3378BB
:10469000DBB29D42E1D017F8013B0AF80430012259
:1046A000084B1A70E4B289F800405F45C8D1BC22BB
:1046B000054BDA70BDE8F88F34800440207D00207F
:1046C0001D7D0020987C002000A00640247D002055
:1046D0009C7C002010B5064B1B7813F0FF0F06D012
:1046E000034CFFF78DFD237813F0FF0FF9D110BDB8
:1046F000987C0020064B1B78DBB2064A1278D2B2B7
:1047000093422CBF3F3202F1FF32D01A704700BFF4
:10471000247D00201D7D0020054B1878C0B2054B7C
:104720001B78DBB2984238BF4030C01A704700BFD8
:104730001C7D0020997C002010B4184B1A78D2B24E
:10474000174B1B78DBB29A4218D001333F2B18D895
:104750001449C85CC0B2DCB211490C701249096836
:10476000C9B19A4203D300E00023D31A01E04032DA
:10477000D31A1A2B0FDC00230B700CE04FF0FF3024
:1047800009E0084B1878C0B20021054B1970064BA0
:1047900019680029E8D15DF8044B70471C7D0020A2
:1047A000997C0020DC7C0020947C0020094B1A7846
:1047B000D2B2094B1B78DBB29A4207D00133402BAF
:1047C00028BF0023054AD05CC0B270474FF0FF30CD
:1047D000704700BF1C7D0020997C0020DC7C0020FD
:1047E0000D4B1B6813F4806F14D00C4BDA7802F079
:1047F000CB02DA7040225A74DA7842F03402DA706E
:10480000074B1A78D2B2074B1A70074B1B680BB1D3
:1048100000221A70704700BF3480044000A0064098
:10482000997C00201C7D0020947C002070B43D4BBE
:104830001B7913F0300F33D072B63A4B9B7D03F0E7
:10484000FF022BB9374BDA7940225A7462B627E05F
:1048500062B6354B1978C9B2344B1C78E4B2314D8D
:10486000334EEB79D8B24B1C402B28BF0023A34218
:104870001CBFF0541946531E13F0FF02F1D1CAB207
:10488000294B1A702B4B1B6853B1A1422EBFC4EBAE
:104890000101C4F1400409192729C4BF01221A707B
:1048A000204BDA78D2B212F0800F27D01B7913F0A8
:1048B000800F23D0204B1C78E4B2204B1B78DBB256
:1048C0009C4210D017491E4D01E0A3420BD001338A
:1048D000402B28BF00230879E85CC0B2C871087D6E
:1048E000C0B20728F1D9DBB214490B700D4B1B790C
:1048F00013F0800F02D07C210A4BD97012F0400FC8
:104900000ED0084B1B7913F0400F09D000220D4B3D
:104910001A700D4B1B6803B11A703C22014BDA7000
:1049200070BC704700A006401C7D0020997C0020D0
:10493000DC7C0020947C0020247D00201D7D002054
:104940009C7C0020987C0020207D0020194B1A6858
:1049500042F400621A600023174A1370174A13705A
:10496000174A1370174A1370174A137040F2133224
:10497000164B1A604FF4517204331A60C0F344327C
:10498000134B1A70C0F347125A7000F01F00987250
:1049900004229A700221D9745A7588221A743C2212
:1049A000DA7040220B4B1A704FF40042A3F22B3303
:1049B0001A60704734800440987D00202D7D0020CF
:1049C000A07D0020997D00202C7D00200CB00440AB
:1049D00000B006402FE400E0164B9B7803F0EC0398
:1049E00000F00302134310F0040F18BF43F010034C
:1049F000104A937000F00F03042B04D113469279F0
:104A000042F040029A710B4B5A7902F0EF0210F01B
:104A1000100F18BF42F01002064B5A719B7903F039
:104A2000EF0310F0200F18BF43F01003014A9371F9
:104A3000704700BF00B0064010B5144B1B6813F45C
:104A4000006F21D0124B1B7813F0FF0F06D0104CD3
:104A5000FFF7D6FB237813F0FF0FF9D14FF4004294
:104A60000C4B1A6000230C4AD37040F203120B491E
:104A70000A6004310A600A4A13700A4A13700A4B2A
:104A80001B680BB101221A7010BD00BF34800440B6
:104A90002C7D002084E100E000B006400CB0044012
:104AA000987D00202D7D0020287D002010B5044633
:104AB000094A137813F0FF0FFBD120460121FEF7BE
:104AC0007FF820460021FEF749F8044B53F83420C4
:104AD000034B1A6010BD00BF2C7D0020006A00004F
:104AE0009C7D002010B50D4B1B6813F4006F12D095
:104AF00021280CD80A4C0B4B53F83030236001218D
:104B0000FEF75EF8236800221A70012010BD002015
:104B1000034B186010BD002010BD00BF348004405E
:104B2000287D0020006A00000D4B1B6813F4006F05
:104B300013D017280AD140F202320A4B1A600A4BEE
:104B40005A7B42F001025A7301207047064B5A7B90
:104B500002F0FE025A73002070470020704700BF29
:104B60003480044008B0044000B006402DE9F04114
:104B700007461F4B1B6813F4006F37D01D4B1B6893
:104B80000BB101221A701C4B1C780134282C28BF51
:104B900000241A4D1A4EDFF86C8017E0FFF78CFBEB
:104BA00040280FDC337913F0800F0FD02B780133BE
:104BB000282B28BF002318F80320D2B2F271DBB2F1
:104BC0002B7003E0FF2801DDFFF71AFB2B78DBB227
:104BD0009C42E3D0FFB20B4B1F5501220A4B1A70C7
:104BE000E4B2054B1C70BC22054BDA70BDE8F081C5
:104BF000348004409C7D0020A07D0020997D002011
:104C000000B00640307D00202C7D00202DE9F84FBB
:104C10000746284B1B6813F4006F49D0264B1B68CE
:104C20000BB101221A7007EB010B5F453DD2DFF893
:104C30009890224EDFF88C80DFF890A099F8004021
:104C40000134282C28BF00243578EDB2A54220D1AC
:104C5000BC2388F80330FFF72FFB402811DC98F8BD
:104C6000043013F0800F10D033780133282B28BF85
:104C700000231AF80320D2B288F80720DBB2337081
:104C800003E0FF2801DDFFF7BBFA3378DBB29D427A
:104C9000E1D017F8013B0AF804300122084B1A70E2
:104CA000E4B289F800405F45C8D1BC22054BDA70F8
:104CB000BDE8F88F348004409C7D0020997D002061
:104CC0002C7D002000B00640A07D0020307D00201B
:104CD00010B5064B1B7813F0FF0F06D0034CFFF7FF
:104CE0008FFA237813F0FF0FF9D110BD2C7D00202F
:104CF000064B1B78DBB2064A1278D2B293422CBF25
:104D0000273202F1FF32D01A704700BFA07D002089
:104D1000997D0020054B1878C0B2054B1B78DBB29B
:104D2000984238BF4030C01A704700BF987D0020BD
:104D30002D7D002010B4184B1A78D2B2174B1B7877
:104D4000DBB29A4218D001333F2B18D81449C85C03
:104D5000C0B2DCB211490C7012490968C9B19A425B
:104D600003D300E00023D31A01E04032D31A1A2BF8
:104D70000FDC00230B700CE04FF0FF3009E0084B14
:104D80001878C0B20021054B1970064B196800292C
:104D9000E8D15DF8044B7047987D00202D7D002000
:104DA000587D0020287D0020094B1A78D2B2094B8B
:104DB0001B78DBB29A4207D00133402B28BF002377
:104DC000054AD05CC0B270474FF0FF30704700BF5B
:104DD000987D00202D7D0020587D00200D4B1B6804
:104DE00013F4006F14D00C4BDA7802F0CB02DA70B7
:104DF00040225A74DA7842F03402DA70074B1A789B
:104E0000D2B2074B1A70074B1B680BB100221A7005
:104E1000704700BF3480044000B006402D7D002064
:104E2000987D0020287D002070B43D4B1B7913F045
:104E3000300F33D072B63A4B9B7D03F0FF022BB993
:104E4000374BDA7940225A7462B627E062B6354BA6
:104E50001978C9B2344B1C78E4B2314D334EEB793A
:104E6000D8B24B1C402B28BF0023A3421CBFF054D8
:104E70001946531E13F0FF02F1D1CAB2294B1A7022
:104E80002B4B1B6853B1A1422EBFC4EB0101C4F1EF
:104E9000400409192729C4BF01221A70204BDA786F
:104EA000D2B212F0800F27D01B7913F0800F23D0DD
:104EB000204B1C78E4B2204B1B78DBB29C4210D014
:104EC00017491E4D01E0A3420BD00133282B28BF08
:104ED00000230879E85CC0B2C871087DC0B2072819
:104EE000F1D9DBB214490B700D4B1B7913F0800F15
:104EF00002D07C210A4BD97012F0400F0ED0084B23
:104F00001B7913F0400F09D000220D4B1A700D4B86
:104F10001B6803B11A703C22014BDA7070BC7047F9
:104F200000B00640987D00202D7D0020587D002097
:104F3000287D0020A07D0020997D0020307D00206C
:104F40002C7D00209C7D0020174B1A6842F4805273
:104F50001A600023154A1370154A1370154A13700E
:104F6000154A1370154A137040F21331144A116038
:104F70004FF4517104321160C0F34431114A117081
:104F8000C0F34711517000F01F00907293701374BA
:104F90002C23D37040220C4B1A704FF40032A3F232
:104FA0002D331A60704700BF34800440147E002007
:104FB000A97D00201C7E0020157E0020A87D0020F9
:104FC00008C0044000C0064031E400E0164B9B7866
:104FD00003F0EC0300F00302134310F0040F18BFBA
:104FE00043F01003104A937000F00F03042B04D118
:104FF0001346927942F040029A710B4B5A7902F0B3
:10500000EF0210F0100F18BF42F01002064B5A7159
:105010009B7903F0EF0310F0200F18BF43F010034B
:10502000014A9371704700BF00C0064010B5144B91
:105030001B6813F4805F21D0124B1B7813F0FF0F15
:1050400006D0104CFFF7DCF8237813F0FF0FF9D1EE
:105050004FF400320C4B1A6000230C4AD37040F21C
:1050600003120B490A6004310A600A4A13700A4AA3
:1050700013700A4B1B680BB101221A7010BD00BFE0
:1050800034800440A87D002084E100E000C0064098
:1050900008C00440147E0020A97D0020A47D0020CB
:1050A00010B50446094A137813F0FF0FFBD12046D0
:1050B0000121FDF785FD20460021FDF74FFD044B42
:1050C00053F83420034B1A6010BD00BFA87D0020A8
:1050D000006A0000187E002010B50D4B1B6813F409
:1050E000805F12D021280CD80A4C0B4B53F830307B
:1050F00023600121FDF764FD236800221A7001205E
:1051000010BD0020034B186010BD002010BD00BF73
:1051100034800440A47D0020006A00000D4B1B6811
:1051200013F4805F13D00E280AD140F202320A4BEA
:105130001A600A4B5A7B42F001025A7301207047F1
:10514000064B5A7B02F0FE025A7300207047002083
:10515000704700BF3480044004C0044000C00640D3
:105160002DE9F04107461F4B1B6813F4805F37D0D1
:105170001D4B1B680BB101221A701C4B1C780134AB
:10518000282C28BF00241A4D1A4EDFF86C8017E037
:10519000FFF792F840280FDC337913F0800F0FD01F
:1051A0002B780133282B28BF002318F80320D2B214
:1051B000F271DBB22B7003E0FF2801DDFFF720F86E
:1051C0002B78DBB29C42E3D0FFB20B4B1F55012280
:1051D0000A4B1A70E4B2054B1C70AC22054BDA7016
:1051E000BDE8F08134800440187E00201C7E002041
:1051F000157E002000C00640AC7D0020A87D002068
:1052000038B505460C4629B115F8010BFFF7A8FF84
:10521000013CF9D138BD00BF10B5064B1B7813F027
:10522000FF0F06D0034CFEF7EBFF237813F0FF0FC0
:10523000F9D110BDA87D0020064B1B78DBB2064AD1
:105240001278D2B293422CBF273202F1FF32D01A29
:10525000704700BF1C7E0020157E0020054B18788B
:10526000C0B2054B1B78DBB2984238BF4030C01A41
:10527000704700BF147E0020A97D002010B4184B99
:105280001A78D2B2174B1B78DBB29A4218D001338E
:105290003F2B18D81449C85CC0B2DCB211490C705D
:1052A00012490968C9B19A4203D300E00023D31A16
:1052B00001E04032D31A1A2B0FDC00230B700CE0F4
:1052C0004FF0FF3009E0084B1878C0B20021054BC1
:1052D0001970064B19680029E8D15DF8044B704736
:1052E000147E0020A97D0020D47D0020A47D002014
:1052F000094B1A78D2B2094B1B78DBB29A4207D01D
:105300000133402B28BF0023054AD05CC0B2704750
:105310004FF0FF30704700BF147E0020A97D0020B1
:10532000D47D0020054B1A78D2B2054B1A70054B7C
:105330001B680BB100221A70704700BFA97D0020C6
:10534000147E0020A47D00202F4B1B7913F0200F2A
:1053500023D02D4BDB79D9B22C4B1B780133402B5A
:1053600028BF00232A4A1278D2B29A4204D0294A8E
:10537000D154D9B2254A1170274A116869B1274A18
:105380001278D2B293422EBFC2EB0303C2F14002A5
:105390009B18272BC4BF01230B701B4BDB78DBB2A0
:1053A00013F0800F1CD0184A127912F0800F17D01A
:1053B0001B4A1178C9B2194A1278D2B2914203D16C
:1053C0006C21114AD1700BE00132282A28BF00223B
:1053D0001449885CC0B20C49C871D2B20F490A7036
:1053E00013F0400F0ED0084B1B7913F0400F09D07B
:1053F00000220D4B1A700D4B1B6803B11A702C2242
:10540000014BDA70704700BF00C00640147E0020D8
:10541000A97D0020D47D0020A47D0020157E0020E1
:105420001C7E0020AC7D0020A87D0020187E00207E
:1054300000B585B072B61B4B70221A7041211A4A12
:1054400011700F21013A117080221A701A461378D8
:1054500013F0800FFBD0154B186862B6144B9842BE
:105460009CBF00EB8000400001A90A22FEF744FF28
:105470009DF804307BB908E001A9595C31B19180F5
:10548000023201330A2BF7D100E0002301335B0025
:10549000084A137003E0074A53800123ECE705B084
:1054A0005DF804FB000002400700024008000240D3
:1054B0007F9698008489FF1F08B503681B68C9B2EE
:1054C000984708BD08B503681B68C9B2984708BD6E
:1054D00008B503681B68C9B2984708BD08B50368DA
:1054E0001B68C9B2984708BD08B54B0803F137607F
:1054F00000F5D830B0FBF1F0FEF720FF08BD00BF8B
:1055000010B514464B0803F1376000F5D830B0FBF6
:10551000F1F0FEF713FF2046FEF756FF10BD00BF67
:1055200008B5FEF781FF08BD08B50846FEF7B6FFCF
:1055300008BD00BF08B50846FEF7CCFF003018BF15
:10554000012008BD08B50846FEF7E6FF003018BF89
:10555000012008BD08B5FFF7DFF808BD08B5FFF763
:1055600025F908BD08B5FFF7E7F808BD08B5FFF74E
:10557000B1F808BD08B5FFF733F908BD08B5FFF766
:10558000B9F808BD08B50846FEF7F2FF012008BDCE
:1055900008B50846FEF7ECFF012008BD10B514461B
:1055A00008461146FFF734F8204610BD38B50D46C1
:1055B000084601F01FF8044628462146FFF728F860
:1055C000204638BD704700BF044B00221A714FF4CB
:1055D0007A7199601A73024A1A607047207E00201F
:1055E000B06B000008B503681B68C9B2984708BDD6
:1055F00008B503681B68C9B2984708BD08B50368B9
:105600001B68C9B2984708BD08B503681B68C9B2D2
:10561000984708BD08B54B0803F1376000F5D8304E
:10562000B0FBF1F0FFF792F908BD00BF10B51446CA
:105630004B0803F1376000F5D830B0FBF1F0FFF70D
:1056400085F92046FFF7C8F910BD00BF08B5FFF780
:10565000F3F908BD08B50846FFF728FA08BD00BFF2
:1056600008B50846FFF73EFA003018BF012008BD14
:1056700008B50846FFF758FA003018BF012008BDEA
:1056800008B5FFF747FB08BD08B5FFF78DFB08BD60
:1056900008B5FFF74FFB08BD08B5FFF719FB08BDBC
:1056A00008B5FFF79BFB08BD08B5FFF721FB08BD58
:1056B00008B50846FFF75AFA012008BD08B50846A4
:1056C000FFF754FA012008BD10B5144608461146EC
:1056D000FFF79CFA204610BD38B50D46084600F08D
:1056E00089FF044628462146FFF790FA204638BD38
:1056F000704700BF044B00221A714FF47A71996011
:105700001A73024A1A607047307E0020086C00004D
:1057100008B503681B68C9B2984708BD08B5036897
:105720001B68C9B2984708BD08B503681B68C9B2B1
:10573000984708BD08B503681B68C9B2984708BDFB
:1057400008B54B0803F1B76000F55840B0FBF1F025
:10575000FFF7FAFB08BD00BF10B514464B0803F174
:10576000B76000F55840B0FBF1F0FFF7EDFB2046C5
:10577000FFF72CFC10BD00BF08B5FFF757FC08BDB4
:1057800008B50846FFF78CFC08BD00BF08B5084601
:10579000FFF7A2FC003018BF012008BD08B508467D
:1057A000FFF7BCFC003018BF012008BD08B5FFF7AB
:1057B00055FD08BD08B5FFF79BFD08BD08B5FFF70F
:1057C0005DFD08BD08B5FFF727FD08BD08B5FFF76B
:1057D000A9FD08BD08B5FFF72FFD08BD08B50846AF
:1057E000FFF7BEFC012008BD08B50846FFF7B8FC6E
:1057F000012008BD10B5144608461146FFF700FD0C
:10580000204610BD38B50D46084600F0F3FE0446AC
:1058100028462146FFF7F4FC204638BD704700BFFC
:10582000044B00221A714FF47A7199601A73024A7C
:105830001A607047407E0020606C000081F00041DB
:1058400002E000BF83F0004330B54FEA41044FEA65
:10585000430594EA050F08BF90EA020F1FBF54EA00
:10586000000C55EA020C7FEA645C7FEA655C00F09C
:10587000E2804FEA5454D4EB5555B8BF6D420CDD6D
:105880002C4480EA020281EA030382EA000083EAF0
:10589000010180EA020281EA0303362D88BF30BD90
:1058A00011F0004F4FEA01314FF4801C4CEA1131E6
:1058B00002D0404261EB410113F0004F4FEA033345
:1058C0004CEA133302D0524263EB430394EA050FD0
:1058D00000F0A780A4F10104D5F1200E0DDB02FA3F
:1058E0000EFC22FA05F2801841F1000103FA0EF2D3
:1058F000801843FA05F359410EE0A5F120050EF199
:10590000200E012A03FA0EFC28BF4CF0020C43FAC9
:1059100005F3C01851EBE37101F0004507D54FF0D6
:10592000000EDCF1000C7EEB00006EEB0101B1F526
:10593000801F1BD3B1F5001F0CD349085FEA30006C
:105940004FEA3C0C04F101044FEA445212F5800F77
:1059500080F09A80BCF1004F08BF5FEA500C50F114
:10596000000041EB045141EA050130BD5FEA4C0CF7
:10597000404141EB010111F4801FA4F10104E9D180
:1059800091F0000F04BF01460020B1FA81F308BF77
:105990002033A3F10B03B3F120020CDA0C3208DD43
:1059A00002F1140CC2F10C0201FA0CF021FA02F11E
:1059B0000CE002F11402D8BFC2F1200C01FA02F18E
:1059C00020FA0CFCDCBF41EA0C019040E41AA2BFB3
:1059D00001EB0451294330BD6FEA04041F3C1CDA7B
:1059E0000C340EDC04F11404C4F1200220FA04F09B
:1059F00001FA02F340EA030021FA04F345EA030145
:105A000030BDC4F10C04C4F1200220FA02F001FA06
:105A100004F340EA0300294630BD21FA04F0294688
:105A200030BD94F0000F83F4801306BF81F4801121
:105A30000134013D4EE77FEA645C18BF7FEA655C94
:105A400029D094EA050F08BF90EA020F05D054EA66
:105A5000000C04BF1946104630BD91EA030F1EBF6B
:105A60000021002030BD5FEA545C05D1400049416F
:105A700028BF41F0004130BD14F580043CBF01F562
:105A8000801130BD01F0004545F0FE4141F4700148
:105A90004FF0000030BD7FEA645C1ABF1946104623
:105AA0007FEA655C1CBF0B46024650EA013406BF24
:105AB00052EA033591EA030F41F4002130BD00BFE3
:105AC00090F0000F04BF0021704730B54FF48064A0
:105AD00004F132044FF000054FF0000150E700BF21
